:100000000204340200000000000000020091000021
:1000100000000002000000000000000200A8000034
:0E0020000000000200000000000000020000CE
:10002E00E5357009D3E58792E0F58780F315352223
:10003E00E5B020E715C3E5349428500B0534E534BC
:10004E0064287003780222780022E5347003780069
:10005E0022C3E53494285006753400780122753495
:04006E0000780022F4
:100072007509001509E509600D7508FFE5086004BA
:07008200150880F880ED2253
:08008900E493F608A3D9F92263
:10009100C0D0C0E0C0F0C082C0830531D083D0821F
:0700A100D0F0D0E0D0D03216
:1000A800C000C001C0D0C0E0C0F0C082C083758B62
:1000B8003C758DF6E53120E40BE5377005753701A1
:1000C8000535800375370075B0BF43907F053275DD
:1000D800F006E53284E5F0F8850032810F21BFE5AE
:1000E800905480FBE53C2483F9E43405FA850182C9
:1000F800850283E493F8EB48F590C3E5B092E0F508
:10010800B021EBE5905480FBE53B2483F9E434050A
:10011800FA850182850283E493F8EB48F590C3E5FC
:10012800B092E1F5B021EBE5905480FBE53A2483E9
:10013800F9E43405FA850182850283E493F8EB48F3
:10014800F590C3E5B092E2F5B021EBE5905480FB61
:10015800E5392483F9E43405FA850182850283E4CC
:1001680093F8EB48F590C3E5B092E3F5B021EBE5E1
:10017800905480FBE5332483F9E43405FA85018241
:10018800850283E493F8EB48F590C3E5B092E4F573
:10019800B08050E5905480FBE5302483F9E43405C1
:1001A800FA850182850283E493F8EB48F590C3E56C
:1001B800B092E5F5B0802CE532700201E7E53264D3
:1001C800017002210BE53264027002212FE53264CE
:1001D8000370022153E532640470022177E532642A
:1001E8000560B041CFE5905480FBE53C2483F9E4F9
:1001F8003405FA850182850283E493F8EB48F5908B
:10020800C3E5B092E0F5B041FBE5905480FBE53BD7
:100218002483F9E43405FA850182850283E493F89E
:10022800EB48F590C3E5B092E1F5B041FBE5905499
:1002380080FBE53A2483F9E43405FA8501828502D6
:1002480083E493F8EB48F590E53630E607C3E5B06C
:1002580092E2F5B041FBE5905480FBE5392483F93F
:10026800E43405FA850182850283E493F8EB48F5C6
:1002780090E53630E607C3E5B092E3F5B041FBE51B
:10028800905480FBE5332483F9E43405FA85018230
:10029800850283E493F8EB48F590C3E5B092E4F562
:1002A800B08050E5905480FBE5302483F9E43405B0
:1002B800FA850182850283E493F8EB48F590C3E55B
:1002C800B092E5F5B0802CE532700221EDE532649C
:1002D8000170024111E532640270024135E5326471
:1002E800037002415EE532640470024187E53264BE
:1002F8000560B0812561E1E5905480FBE53C2483ED
:10030800F9E43405FA850182850283E493F8EB4821
:10031800F590C3E5B092E0F5B0810DE5905480FB0F
:10032800E53B2483F9E43405FA850182850283E4F8
:1003380093F8EB48F590C3E5B092E1F5B0810DE58F
:10034800905480FBE53A2483F9E43405FA85018268
:10035800850283E493F8EB48F590C3E5B092E2F5A3
:10036800B0810DE5905480FBE5392483F9E4340528
:10037800FA850182850283E493F8EB48F590C3E59A
:10038800B092E3F5B0810DE5905480FBE53324830A
:10039800F9E43405FA850182850283E493F8EB4891
:1003A800F590E53630E607C3E5B092E4F5B0805540
:1003B800E5905480FBE5302483F9E43405FA85019F
:1003C80082850283E493F8EB48F590E53630E6073A
:1003D800C3E5B092E5F5B0802CE532700241FFE547
:1003E80032640170026123E532640270026147E5FC
:1003F8003264037002616BE53264047002618FE558
:1004080032640560AB8016E53E700201E5E53E64A6
:1004180002700221EBE53E6403700241FDD083D0F7
:0C04280082D0F0D0E0D0D0D001D0003263
:1004340075813F12059D75A8007587007598001198
:1004440072758912758A06758C06758B3C758DF6E6
:1004540075885075B80875A88A112EA163053DD317
:10046400E53D947C4055753D00053CD3E53C94093D
:100474004049753C00053BD3E53B9405403D753B45
:1004840000053AD3E53A94094031753A000539D369
:10049400E539940540257539000538D3E5389417B6
:1004A400400375380075F00AE53884F88500307526
:1004B400F00AE53884E5F0F8850033E53E701A115A
:1004C4003E800A753E01800F753E02800AE8640191
:1004D40060F1E8640260F18018113E800A753E0004
:1004E400800F753E00800AE8640160F1E8640260F0
:1004F400F1A17F0536113E801F053AD3E53A9409F0
:10050400400F753A000539D3E53994054003753930
:1005140000800F753E03800AE8640160DCE8640231
:1005240060F180570536113E80290538D3E53894AB
:1005340017400375380075F00AE53884F9850130F1
:1005440075F00AE53884E5F0F9850133800F753ECE
:1005540000800AE8640160D2E8640260F1801CE56E
:100564003E70028161E53E640170028161E53E6492
:0F05740002700281F7E53E640360A9815D80FE9D
:10059D0078307904758298758305120089783479DD
:1005AD000175829C7583051200897835790A7582EB
:0805BD008E75830512008922EE
:0B05830040792430191202780010FFAC
:01058E00006C
:01058F00006B
:01059000006A
:010591000069
:010592000068
:010593000067
:010594000066
:010595000065
:010596000064
:010597000063
:010598000062
:010599000061
:01059A000060
:01059B00005F
:01059C00005E
:00000001FF
