:100000000203A902000000000000000203870000B4
:100010000000000200000000000000020078000064
:0E0020000000000200000000000000020000CE
:0E002E00E536700280FAC2AF153675A88A2238
:10003C00E5B020E715C3E533940C500B0533E533DD
:10004C00640C7003780222780022E5337003780088
:10005C0022C3E533940C50067533007801227533B6
:04006C0000780022F6
:08007000E493F608A3D9F9227C
:10007800C000C001C002C0D0C0E0C0F0C082C083D0
:10008800758B3C758DF675B0FF7590FF053875F06A
:1000980006E53884E5F0F88500386160215AE534D2
:1000A800244EF9E43405FA850182850283E493F845
:1000B800850090C3E5B092E0F5B02184E535244E83
:1000C800F9E43405FA850182850283E493F8850012
:1000D80090C3E5B092E1F5B02184E530244EF9E40F
:1000E8003405FA850182850283E493F8850090C37C
:1000F800E5B092E2F5B02184E537244EF9E4340501
:10010800FA850182850283E493F8850090C3E5B0FF
:1001180092E3F5B02184E53B244EF9E43405FA85F1
:100128000182850283E493F8850090C3E5B092E4E8
:10013800F5B08048E53C244EF9E43405FA8501829F
:10014800850283E493F8850090C3E5B092E5F5B0A5
:10015800802AE538700201A6E5386401700201C4FE
:10016800E5386402700201E2E53864037002210098
:10017800E538640460A0E538640560B861764146F6
:10018800E534244EF9E43405FA850182850283E4D6
:1001980093F8850090C3E5B092E0F5B04170E5357D
:1001A800244EF9E43405FA850182850283E493F844
:1001B800850090C3E5B092E1F5B04170E530244E7A
:1001C800F9E43405FA850182850283E493F8850011
:1001D80090E53A30E407C3E5B092E2F5B04170E546
:1001E80037244EF9E43405FA850182850283E493C5
:1001F800F8850090E53A30E407C3E5B092E3F5B03E
:100208004170E53B244EF9E43405FA850182850204
:1002180083E493F8850090C3E5B092E4F5B0804894
:10022800E53C244EF9E43405FA850182850283E42D
:1002380093F8850090C3E5B092E5F5B0802AE538DB
:1002480070022188E5386401700221A6E53864024D
:10025800700221C4E5386403700221E7E5386404BC
:1002680060A0E538640560B861766132E534244EF3
:10027800F9E43405FA850182850283E493F8850060
:1002880090C3E5B092E0F5B0615EE535244EF9E43F
:100298003405FA850182850283E493F8850090C3CA
:1002A800E5B092E1F5B0615EE530244EF9E434053D
:1002B800FA850182850283E493F8850090C3E5B04E
:1002C80092E2F5B0615EE537244EF9E43405FA852B
:1002D8000182850283E493F8850090C3E5B092E338
:1002E800F5B0615EE53B244EF9E43405FA850182F8
:1002F800850283E493F8850090E53A30E407C3E586
:10030800B092E4F5B0804FE53C244EF9E43405FAA8
:10031800850182850283E493F8850090E53A30E40C
:1003280007C3E5B092E5F5B0802CE538700241745A
:10033800E538640170024192E5386402700241B008
:10034800E5386403700241CEE5386404700241EC7C
:10035800E538640560B18016E531700201A4E53125
:10036800640270022186E531640370024172D08311
:0F037800D082D0F0D0E0D0D0D002D001D000326F
:10038700C0D0C0E0C0F0C082C083E58A245BF58A94
:10039700758C9ED28C0536D083D082D0F0D0E0D039
:0203A700D03252
:1003A90075813D12056675A800758911758B3C75B7
:1003B9008DF6D28E758A58758C9ED28CC2BBD2B9F5
:1003C90075A88A112E81FC0532D3E5329427500293
:1003D90081447532000534D3E5349409405D7534A0
:1003E900000535D3E535940540517535000530D301
:1003F900E530940940457530000537D3E537940554
:1004090040397537000539D3E539941740037539F3
:1004190000E5392436F9E43405FA85018285028339
:10042900E493F885003CE539241EF9E43405FA859E
:100439000182850283E493F885003BE531701A1146
:100449003C800A753101800F753102800AE8640128
:1004590060F1E8640260F18018113C800A7531008E
:10046900800F753100800AE8640160F1E864026078
:10047900F1A11A053A113C801F0530D3E5309409E2
:10048900400F7530000537D3E537940540037537BC
:1004990000800F753103800AE8640160DCE86402BA
:1004A90060F1A11A053A113C803D0539D3E539942B
:1004B900174003753900E5392436FAE43405FB851C
:1004C9000282850383E493F985013CE539241EFA08
:1004D900E43405FB850282850383E493F985013BB6
:1004E900800F753100800AE8640160BEE86402602B
:1004F900F1801EE531700261D0E53164017002615D
:10050900D0E53164027002817CE5316403700281B7
:05051900AD61CC80FE85
:100566007830790375826275830512007078337965
:100576000175826575830512007078347909758274
:08058600597583051200702273
:10051E000001020304050607080900010203040591
:08052E000607080900010203A1
:1005360000000000000000000000010101010101AF
:080546000101010102020202A1
:0B054E0040792430191202780010FFE1
:0105590000A1
:01055A0000A0
:01055B00009F
:01055C00009E
:01055D00009D
:01055E00009C
:01055F00009B
:01056000009A
:010561000099
:010562000098
:010563000097
:010564000096
:010565000095
:00000001FF
