:100000000203A602000000000000000200730000CE
:10001000000000020000000000000002008A000052
:0E0020000000000200000000000000020000CE
:09002E00E535700280FA15352257
:10003700E5B020E715C3E5349428500B0534E534C3
:1000470064287003780222780022E5347003780070
:1000570022C3E5349428500675340078012275349C
:0400670000780022FB
:08006B00E493F608A3D9F92281
:10007300C0D0C0E0C0F0C082C0830531D083D0823D
:07008300D0F0D0E0D0D03234
:10008A00C000C001C0D0C0E0C0F0C082C083758B80
:10009A003C758DF6E53120E40BE5377005753701BF
:1000AA000535800375370075B0BF7590FF05327549
:1000BA00F006E53284E5F0F88500326181217DE5BC
:1000CA003C24F3F9E43404FA850182850283E4933B
:1000DA00F8850090C3E5B092E0F5B021A7E53B248E
:1000EA00F3F9E43404FA850182850283E493F885FE
:1000FA000090C3E5B092E1F5B021A7E53A24F3F9FF
:10010A00E43404FA850182850283E493F885009039
:10011A00C3E5B092E2F5B021A7E53924F3F9E43456
:10012A0004FA850182850283E493F8850090C3E589
:10013A00B092E3F5B021A7E53324F3F9E43404FAE5
:10014A00850182850283E493F8850090C3E5B09225
:10015A00E4F5B08048E53024F3F9E43404FA850183
:10016A0082850283E493F8850090C3E5B092E5F5B1
:10017A00B0802AE532700201C9E5326401700201D9
:10018A00E7E532640270022105E532640370022158
:10019A0023E532640460A0E532640560B84167E58E
:1001AA003C24F3F9E43404FA850182850283E4935A
:1001BA00F8850090C3E5B092E0F5B04191E53B24A3
:1001CA00F3F9E43404FA850182850283E493F8851D
:1001DA000090C3E5B092E1F5B04191E53A24F3F914
:1001EA00E43404FA850182850283E493F885009059
:1001FA00E53630E607C3E5B092E2F5B04191E5395C
:10020A0024F3F9E43404FA850182850283E493F83D
:10021A00850090E53630E607C3E5B092E3F5B041D4
:10022A0091E53324F3F9E43404FA850182850283E3
:10023A00E493F8850090C3E5B092E4F5B08048E510
:10024A003024F3F9E43404FA850182850283E493C5
:10025A00F8850090C3E5B092E5F5B0802AE53270E2
:10026A000221A9E5326401700221C7E532640270F5
:10027A000221E5E532640370024108E53264046054
:10028A00A0E532640560B861976153E53C24F3F94F
:10029A00E43404FA850182850283E493F8850090A8
:1002AA00C3E5B092E0F5B0617FE53B24F3F9E434AD
:1002BA0004FA850182850283E493F8850090C3E5F8
:1002CA00B092E1F5B0617FE53A24F3F9E43404FA37
:1002DA00850182850283E493F8850090C3E5B09294
:1002EA00E2F5B0617FE53924F3F9E43404FA8501D3
:1002FA0082850283E493F8850090C3E5B092E3F522
:10030A00B0617FE53324F3F9E43404FA8501828588
:10031A000283E493F8850090E53630E607C3E5B03A
:10032A0092E4F5B0804FE53024F3F9E43404FA8519
:10033A000182850283E493F8850090E53630E6076A
:10034A00C3E5B092E5F5B0802CE53270024195E53F
:10035A00326401700241B3E5326402700241D1E5B0
:10036A00326403700241EFE53264047002610DE504
:10037A0032640560B18016E53E700201C7E53E644D
:10038A0002700221A7E53E640370024193D083D034
:0C039A0082D0F0D0E0D0D0D001D00032F2
:1003A60075813F12050D75A8007587007598007553
:1003B6008912758A06758C06758B3C758DF675885F
:1003C6005075B80875A88A112E81D3053DD3E53D31
:1003D600947C4055753D00053CD3E53C9409404965
:1003E600753C00053BD3E53B9405403D753B000558
:1003F6003AD3E53A94094031753A000539D3E539DF
:10040600940540257539000538D3E538941740031F
:1004160075380075F00AE53884F885003075F00AFD
:10042600E53884E5F0F8850033E53E701A1137802B
:100436000A753E01800F753E02800AE8640160F18C
:10044600E8640260F180181137800A753E00800F5B
:10045600753E00800AE8640160F1E8640260F1819B
:10046600EF05361137801F053AD3E53A9409400F58
:10047600753A000539D3E53994054003753900808E
:100486000F753E03800AE8640160DCE8640260F1EF
:1004960080570536113780290538D3E5389417403B
:1004A6000375380075F00AE53884F985013075F072
:1004B6000AE53884E5F0F9850133800F753E008042
:1004C6000AE8640160D2E8640260F1801CE53E70CF
:1004D6000261D1E53E6401700261D1E53E640270BD
:0D04E600028167E53E640360A961CD80FEE0
:10050D007830790475820875830512006B7834791B
:10051D000175820C75830512006B7835790A758229
:08052D00FE75830412006B222D
:0B04F30040792430191202780010FF3D
:0104FE0000FD
:0104FF0000FC
:0105000000FA
:0105010000F9
:0105020000F8
:0105030000F7
:0105040000F6
:0105050000F5
:0105060000F4
:0105070000F3
:0105080000F2
:0105090000F1
:01050A0000F0
:01050B0000EF
:01050C0000EE
:00000001FF
