:100000000203AB02000000000000000203890000B0
:10001000000000020000000000000002007A000062
:0E0020000000000200000000000000020000CE
:10002E00E5367009D3E58792E0F58780F315362221
:10003E00E5B020E715C3E533940C500B0533E533DB
:10004E00640C7003780222780022E5337003780086
:10005E0022C3E533940C50067533007801227533B4
:04006E0000780022F4
:08007200E493F608A3D9F9227A
:10007A00C000C001C002C0D0C0E0C0F0C082C083CE
:10008A00758B3C758DF675B0FF7590FF053875F068
:10009A0006E53884E5F0F88500386162215CE534CC
:1000AA002457F9E43405FA850182850283E493F83A
:1000BA00850090C3E5B092E0F5B02186E535245776
:1000CA00F9E43405FA850182850283E493F8850010
:1000DA0090C3E5B092E1F5B02186E5302457F9E402
:1000EA003405FA850182850283E493F8850090C37A
:1000FA00E5B092E2F5B02186E5372457F9E43405F4
:10010A00FA850182850283E493F8850090C3E5B0FD
:10011A0092E3F5B02186E53B2457F9E43405FA85E4
:10012A000182850283E493F8850090C3E5B092E4E6
:10013A00F5B08048E53C2457F9E43405FA85018294
:10014A00850283E493F8850090C3E5B092E5F5B0A3
:10015A00802AE538700201A8E5386401700201C6F8
:10016A00E5386402700201E4E53864037002210292
:10017A00E538640460A0E538640560B861784148F0
:10018A00E5342457F9E43405FA850182850283E4CB
:10019A0093F8850090C3E5B092E0F5B04172E53579
:1001AA002457F9E43405FA850182850283E493F839
:1001BA00850090C3E5B092E1F5B04172E53024576D
:1001CA00F9E43405FA850182850283E493F885000F
:1001DA0090E53A30E407C3E5B092E2F5B04172E542
:1001EA00372457F9E43405FA850182850283E493BA
:1001FA00F8850090E53A30E407C3E5B092E3F5B03C
:10020A004172E53B2457F9E43405FA8501828502F7
:10021A0083E493F8850090C3E5B092E4F5B0804892
:10022A00E53C2457F9E43405FA850182850283E422
:10023A0093F8850090C3E5B092E5F5B0802AE538D9
:10024A007002218AE5386401700221A8E538640247
:10025A00700221C6E5386403700221E9E5386404B6
:10026A0060A0E538640560B861786134E5342457E4
:10027A00F9E43405FA850182850283E493F885005E
:10028A0090C3E5B092E0F5B06160E5352457F9E432
:10029A003405FA850182850283E493F8850090C3C8
:1002AA00E5B092E1F5B06160E5302457F9E4340530
:1002BA00FA850182850283E493F8850090C3E5B04C
:1002CA0092E2F5B06160E5372457F9E43405FA851E
:1002DA000182850283E493F8850090C3E5B092E336
:1002EA00F5B06160E53B2457F9E43405FA850182EB
:1002FA00850283E493F8850090E53A30E407C3E584
:10030A00B092E4F5B0804FE53C2457F9E43405FA9D
:10031A00850182850283E493F8850090E53A30E40A
:10032A0007C3E5B092E5F5B0802CE5387002417656
:10033A00E538640170024194E5386402700241B202
:10034A00E5386403700241D0E5386404700241EE76
:10035A00E538640560B18016E531700201A6E53121
:10036A00640270022188E531640370024174D0830B
:0F037A00D082D0F0D0E0D0D0D002D001D000326D
:10038900C0D0C0E0C0F0C082C083E58A245AF58A93
:10039900758C9ED28C0536D083D082D0F0D0E0D037
:0203A900D03250
:1003AB0075813D12056F75A800758911758B3C75AC
:1003BB008DF6D28E758A58758C9ED28CC2BBD2B9F3
:1003CB0075A88AD3E58792E0F587112EA105053232
:1003DB00D3E53294275002814D7532000534D3E5B5
:1003EB00349409405D7534000535D3E535940540EB
:1003FB00517535000530D3E5309409404575300013
:10040B000537D3E537940540397537000539D3E502
:10041B003994174003753900E539243FF9E4340565
:10042B00FA850182850283E493F885003CE5392443
:10043B0027F9E43405FA850182850283E493F88574
:10044B00003BE531701A113E800A753101800F7542
:10045B003102800AE8640160F1E8640260F18018FF
:10046B00113E800A753100800F753100800AE864F7
:10047B000160F1E8640260F1A123053A113E801F8F
:10048B000530D3E5309409400F7530000537D3E5BF
:10049B003794054003753700800F753103800AE8E8
:1004AB00640160DCE8640260F1A123053A113E802F
:1004BB003D0539D3E53994174003753900E53924E7
:1004CB003FFAE43405FB850282850383E493F985C7
:1004DB00013CE5392427FAE43405FB8502828503C8
:1004EB0083E493F985013B800F753100800AE86442
:1004FB000160BEE8640260F1801EE531700261D9D3
:10050B00E5316401700261D9E531640270028185C5
:0C051B00E5316403700281B661CE80FE01
:10056F007830790375826B75830512007278337951
:10057F000175826E75830512007278347909758260
:08058F0062758305120072225F
:100527000001020304050607080900010203040588
:08053700060708090001020398
:10053F0000000000000000000000010101010101A6
:08054F00010101010202020298
:0B05570040792430191202780010FFD8
:010562000098
:010563000097
:010564000096
:010565000095
:010566000094
:010567000093
:010568000092
:010569000091
:01056A000090
:01056B00008F
:01056C00008E
:01056D00008D
:01056E00008C
:00000001FF

