:1000000002029002000000000000000200730000E5
:10001000000000020000000000000002008A000052
:0E0020000000000200000000000000020000CE
:09002E00E53E700280FA153E2245
:10003700E5B020E715C3E53F9428500B053FE53FA2
:1000470064287003780222780022E53F7003780065
:1000570022C3E53F94285006753F00780122753F7B
:0400670000780022FB
:08006B00E493F608A3D9F92281
:10007300C0D0C0E0C0F0C082C0830541D083D0822D
:07008300D0F0D0E0D0D03234
:10008A00C000C0D0C0E0C0F0C082C083758B3C7590
:10009A008DF6E54120E40BE5307005753001053E2B
:1000AA00800375300075B0BF7590FF053275F00694
:1000BA00E53284E5F0F8850032416D8060743325BD
:1000CA0046F88690C3E5B092E5F5B0214974332528
:1000DA0043F88690C3E5B092E3F5B08062743325A5
:1000EA0044F88690C3E5B092E4F5B08052743325A3
:1000FA0045F88690C3E5B092E2F5B08042743325A4
:10010A0031F88690C3E5B092E1F5B08032743325B8
:10011A0047F88690C3E5B092E0F5B08022E53260F8
:10012A009CE532640160A6E532640260B0E532649F
:10013A000360BAE532640460C4E532640560CE80C7
:10014A006A74332546F88690C3E5B092E5F5B02186
:10015A00D974332543F88690C3E5B092E3F5B0210C
:10016A00D974332544F88690E54030E607C3E5B0F4
:10017A0092E4F5B0805974332545F88690E540300D
:10018A00E607C3E5B092E2F5B0804474332531F84E
:10019A008690C3E5B092E1F5B0803474332547F810
:1001AA008690C3E5B092E0F5B08024E53270022172
:1001BA004BE5326401609AE532640260A4E5326478
:1001CA000360B3E532640460C2E532640560CC4181
:1001DA0083806A74332546F88690C3E5B092E5F5C4
:1001EA00B0416B74332543F88690C3E5B092E3F5CA
:1001FA00B0416B74332544F88690C3E5B092E4F5B8
:10020A00B0805E74332545F88690C3E5B092E2F576
:10021A00B0804E74332531F88690E54030E607C346
:10022A00E5B092E1F5B0803974332547F88690E558
:10023A004030E607C3E5B092E0F5B08024E53270BD
:10024A000221DDE5326401609AE532640260A4E5C8
:10025A0032640360AEE532640460B8E53264056076
:10026A00C78016E548700201C5E54864027002219C
:10027A0049E5486403700221DBD083D082D0F0D0F4
:06028A00E0D0D0D00032EC
:1002900075814A1203F775A8007587007598007577
:1002A0008912758A06758C06758B3C758DF6758876
:1002B0005075B80875A88A112E61BD0549D3E54966
:1002C000947C40557549000546D3E546940940495C
:1002D0007546000543D3E5439405403D754300054D
:1002E00044D3E544940940317544000545D3E545C0
:1002F000940540257545000542D3E5429417400317
:1003000075420075F00AE54284F885004775F00AE9
:10031000E54284E5F0F8850031E548701A11378030
:100320000A754801800F754802800AE8640160F18F
:10033000E8640260F180181137800A754800800F68
:10034000754800800AE8640160F1E8640260F161C8
:10035000D905401137801F0544D3E5449409400F67
:100360007544000545D3E545940540037545008077
:100370000F754803800AE8640160DCE8640260F1FC
:1003800080570540113780290542D3E54294174034
:100390000375420075F00AE54284F985014775F05E
:1003A0000AE54284E5F0F9850131800F7548008047
:1003B0000AE8640160D2E8640260F1801CE54870DC
:1003C0000241BBE5486401700241BBE5486402702C
:0D03D000026151E548640360A941B780FE59
:1003F7007830790F7582DD75830312006B783F794A
:10040700017582F675830312006B7840790A75824D
:08041700EC75830312006B2257
:0103DD00001F
:0103DE00001E
:0103DF00001D
:0B03E000083D44243122023C0020FFB5
:0103EB000011
:0103EC000010
:0103ED00000F
:0103EE00000E
:0103EF00000D
:0103F000000C
:0103F100000B
:0103F200000A
:0103F3000009
:0103F4000008
:0103F5000007
:0103F6000006
:00000001FF
