:10000000020291020000000000000002026F0000E6
:10001000000000020000000000000002007A000062
:0E0020000000000200000000000000020000CE
:10002E00E53F7009D3E58792E0F58780F3153F220F
:10003E00E5B020E715C3E53E940C500B053EE53EBA
:10004E00640C7003780222780022E53E700378007B
:10005E0022C3E53E940C5006753E00780122753E93
:04006E0000780022F4
:08007200E493F608A3D9F9227A
:10007A00C000C0D0C0E0C0F0C082C083758B3C75A0
:10008A008DF675B0FF7590FF053C75F006E53C846A
:10009A00E5F0F885003C414C806074312546F886CD
:1000AA0090C3E5B092E5F5B0212674312543F88670
:1000BA0090C3E5B092E3F5B0806274312542F886C8
:1000CA0090C3E5B092E4F5B0805274312541F886C8
:1000DA0090C3E5B092E2F5B080427431253DF886CE
:1000EA0090C3E5B092E1F5B0803274312530F886DC
:1000FA0090C3E5B092E0F5B08022E53C609CE53C17
:10010A00640160A6E53C640260B0E53C640360BA41
:10011A00E53C640460C4E53C640560CE4162806AE3
:10012A0074312546F88690C3E5B092E5F5B021B85A
:10013A0074312543F88690C3E5B092E3F5B021B84F
:10014A0074312542F88690E54030E407C3E5B09261
:10015A00E4F5B0805974312541F88690E54030E4E1
:10016A0007C3E5B092E2F5B080447431253DF886C4
:10017A0090C3E5B092E1F5B0803474312530F88649
:10018A0090C3E5B092E0F5B08024E53C7002212AE4
:10019A00E53C6401609AE53C640260A4E53C6403C2
:1001AA0060B3E53C640460C2E53C640560CC41622E
:1001BA00806A74312546F88690C3E5B092E5F5B0B9
:1001CA00414A74312543F88690C3E5B092E3F5B00D
:1001DA00414A74312542F88690C3E5B092E4F5B0FD
:1001EA00805E74312541F88690C3E5B092E2F5B09D
:1001FA00804E7431253DF88690E54030E407C3E52A
:10020A00B092E1F5B0803974312530F88690E54036
:10021A0030E407C3E5B092E0F5B08024E53C700213
:10022A0021BCE53C6401609AE53C640260A4E53CBB
:10023A00640360AEE53C640460B8E53C640560C7ED
:10024A008016E544700201A2E54464027002212886
:10025A00E5446403700221BAD083D082D0F0D0E0A2
:05026A00D0D0D00032ED
:10026F00C0D0C0E0C0F0C082C083E58A245BF58AAD
:10027F00758C9ED28C053FD083D082D0F0D0E0D049
:02028F00D0326B
:1002910075814812045575A800758911758B3C75D7
:1002A1008DF6D28E758A58758C9ED28CC2BBD2B90E
:1002B10075A88AD3E58792E0F587112E61EB054792
:1002C100D3E5479427500261337547000546D3E5CE
:1002D100469409405D7546000543D3E543940540C6
:1002E100517543000542D3E54294094045754200EA
:1002F1000541D3E541940540397541000545D3E5F4
:100301004594174003754500E5452425F9E4340477
:10031100FA850182850283E493F8850030E545245E
:100321000DF9E43404FA850182850283E493F885AA
:10033100003DE544701A113E800A754401800F7535
:100341004402800AE8640160F1E8640260F1801807
:10035100113E800A754400800F754400800AE864EC
:100361000160F1E8640260F181090540113E801FDE
:100371000542D3E5429409400F7542000541D3E59A
:100381004194054003754100800F754403800AE8DC
:10039100640160DCE8640260F181090540113E807E
:1003A1003D0545D3E54594174003754500E54524D2
:1003B10025FAE43404FB850282850383E493F985FD
:1003C1000130E545240DFAE43404FB8502828503FE
:1003D10083E493F985013D800F754400800AE86448
:1003E1000160BEE8640260F1801EE544700241BF15
:1003F100E5446401700241BFE54464027002616B2F
:0C040100E54464037002619C41B480FE7D
:100455007830790E75823D758304120072783E7985
:1004650001758254758304120072783F790975828B
:080475004B7583041200722292
:10040D0000010203040506070809000102030405A3
:08041D000607080900010203B3
:1004250000000000000000000000010101010101C1
:080435000101010102020202B3
:01043D0000BE
:0B043E00083D44243122023C0020FF56
:0104490000B2
:01044A0000B1
:01044B0000B0
:01044C0000AF
:01044D0000AE
:01044E0000AD
:01044F0000AC
:0104500000AB
:0104510000AA
:0104520000A9
:0104530000A8
:0104540000A7
:00000001FF
