:1000000002028F020000000000000002026D0000EA
:100010000000000200000000000000020078000064
:0E0020000000000200000000000000020000CE
:0E002E00E53F700280FAC2AF153F75A88A2226
:10003C00E5B020E715C3E53E940C500B053EE53EBC
:10004C00640C7003780222780022E53E700378007D
:10005C0022C3E53E940C5006753E00780122753E95
:04006C0000780022F6
:08007000E493F608A3D9F9227C
:10007800C000C0D0C0E0C0F0C082C083758B3C75A2
:100088008DF675B0FF7590FF053C75F006E53C846C
:10009800E5F0F885003C414A806074312546F886D1
:1000A80090C3E5B092E5F5B0212474312543F88674
:1000B80090C3E5B092E3F5B0806274312542F886CA
:1000C80090C3E5B092E4F5B0805274312541F886CA
:1000D80090C3E5B092E2F5B080427431253DF886D0
:1000E80090C3E5B092E1F5B0803274312530F886DE
:1000F80090C3E5B092E0F5B08022E53C609CE53C19
:10010800640160A6E53C640260B0E53C640360BA43
:10011800E53C640460C4E53C640560CE4160806AE7
:1001280074312546F88690C3E5B092E5F5B021B65E
:1001380074312543F88690C3E5B092E3F5B021B653
:1001480074312542F88690E54030E407C3E5B09263
:10015800E4F5B0805974312541F88690E54030E4E3
:1001680007C3E5B092E2F5B080447431253DF886C6
:1001780090C3E5B092E1F5B0803474312530F8864B
:1001880090C3E5B092E0F5B08024E53C70022128E8
:10019800E53C6401609AE53C640260A4E53C6403C4
:1001A80060B3E53C640460C2E53C640560CC416032
:1001B800806A74312546F88690C3E5B092E5F5B0BB
:1001C800414874312543F88690C3E5B092E3F5B011
:1001D800414874312542F88690C3E5B092E4F5B001
:1001E800805E74312541F88690C3E5B092E2F5B09F
:1001F800804E7431253DF88690E54030E407C3E52C
:10020800B092E1F5B0803974312530F88690E54038
:1002180030E407C3E5B092E0F5B08024E53C700215
:1002280021BAE53C6401609AE53C640260A4E53CBF
:10023800640360AEE53C640460B8E53C640560C7EF
:100248008016E544700201A0E5446402700221268C
:10025800E5446403700221B8D083D082D0F0D0E0A6
:05026800D0D0D00032EF
:10026D00C0D0C0E0C0F0C082C083E58A245BF58AAF
:10027D00758C9ED28C053FD083D082D0F0D0E0D04B
:02028D00D0326D
:10028F0075814812044C75A800758911758B3C75E2
:10029F008DF6D28E758A58758C9ED28CC2BBD2B910
:1002AF0075A88A112E61E20547D3E54794275002BE
:1002BF00612A7547000546D3E5469409405D7546AA
:1002CF00000543D3E543940540517543000542D3E0
:1002DF00E542940940457542000541D3E541940537
:1002EF0040397541000545D3E545941740037545E1
:1002FF0000E545241CF9E43404FA85018285028364
:10030F00E493F8850030E5452404F9E43404FA85D4
:10031F000182850283E493F885003DE544701A114C
:10032F003C800A754401800F754402800AE864011D
:10033F0060F1E8640260F18018113C800A75440096
:10034F00800F754400800AE8640160F1E864026080
:10035F00F181000540113C801F0542D3E54294090D
:10036F00400F7542000541D3E541940540037541A7
:10037F0000800F754403800AE8640160DCE86402C2
:10038F0060F181000540113C803D0545D3E5459462
:10039F00174003754500E545241CFAE43404FB853A
:1003AF000282850383E493F9850130E5452404FA3D
:1003BF00E43404FB850282850383E493F985013DD0
:1003CF00800F754400800AE8640160BEE864026033
:1003DF00F1801EE544700241B6E5446401700241AC
:1003EF00B6E544640270026162E544640370026121
:0503FF009341B280FEF5
:10044C007830790E758234758304120070783E7999
:10045C000175824B758304120070783F790975829F
:08046C004275830412007022A6
:1004040000010203040506070809000102030405AC
:080414000607080900010203BC
:10041C0000000000000000000000010101010101CA
:08042C000101010102020202BC
:0104340000C7
:0B043500083D44243122023C0020FF5F
:0104400000BB
:0104410000BA
:0104420000B9
:0104430000B8
:0104440000B7
:0104450000B6
:0104460000B5
:0104470000B4
:0104480000B3
:0104490000B2
:01044A0000B1
:01044B0000B0
:00000001FF
