:100000000203400200000000000000020091000016
:1000100000000002000000000000000200A8000034
:0E0020000000000200000000000000020000CE
:10002E00E53E7009D3E58792E0F58780F3153E2211
:10003E00E5B020E715C3E53F9428500B053FE53F9B
:10004E0064287003780222780022E53F700378005E
:10005E0022C3E53F94285006753F00780122753F74
:04006E0000780022F4
:100072007509001509E509600D7508FFE5086004BA
:07008200150880F880ED2253
:08008900E493F608A3D9F92263
:10009100C0D0C0E0C0F0C082C0830541D083D0820F
:0700A100D0F0D0E0D0D03216
:1000A800C000C001C0D0C0E0C0F0C082C083758B62
:1000B8003C758DF6E54120E40BE53070057530019F
:1000C800053E800375300075B0BF43907F053275DB
:1000D800F006E53284E5F0F8850032611B2171E510
:1000E800905480F974332546F8E946F590C3E5B095
:1000F80092E5F5B02199E5905480F974332543F8D9
:10010800E946F590C3E5B092E3F5B02199E590543E
:1001180080F974332544F8E946F590C3E5B092E4D4
:10012800F5B02199E5905480F974332545F8E946EE
:10013800F590C3E5B092E2F5B08056E5905480F9A9
:1001480074332531F8E946F590C3E5B092E1F5B08E
:10015800803FE5905480F974332547F8E946F590D7
:10016800C3E5B092E0F5B08028E532700201E7E51A
:10017800326401700201FEE532640270022115E565
:10018800326403609FE532640460B0E53264056060
:10019800C1412FE5905480F974332546F8E946F5B6
:1001A80090C3E5B092E5F5B04157E5905480F974F5
:1001B800332543F8E946F590C3E5B092E3F5B0413D
:1001C80057E5905480F974332544F8E946F590E5ED
:1001D8004030E607C3E5B092E4F5B04157E59054E6
:1001E80080F974332545F8E946F590E54030E6078F
:1001F800C3E5B092E2F5B08056E5905480F97433C7
:100208002531F8E946F590C3E5B092E1F5B0803FB5
:10021800E5905480F974332547F8E946F590C3E52D
:10022800B092E0F5B08028E5327002219BE5326497
:1002380001700221B2E5326402700221C9E532641C
:1002480003609AE532640460B0E532640560C16118
:100258003141EFE5905480F974332546F8E946F5C5
:1002680090C3E5B092E5F5B06119E5905480F97452
:10027800332543F8E946F590C3E5B092E3F5B0615C
:1002880019E5905480F974332544F8E946F590C38C
:10029800E5B092E4F5B06119E5905480F97433251E
:1002A80045F8E946F590C3E5B092E2F5B08062E51D
:1002B800905480F974332531F8E946F590E54030DB
:1002C800E607C3E5B092E1F5B08046E5905480F9C1
:1002D80074332547F8E946F590E54030E607C3E56D
:1002E800B092E0F5B0802AE5327002415BE53264F5
:1002F8000170024172E532640270024189E532649C
:1003080003700241A0E532640460A4E5326405602C
:10031800BA8016E548700201E5E5486402700221DA
:1003280099E548640370024159D083D082D0F0D057
:08033800E0D0D0D001D000326A
:1003400075814A1204A975A8007587007598001177
:1003500072758912758A06758C06758B3C758DF6DB
:1003600075885075B80875A88A112E816F0549D314
:10037000E549947C40557549000546D3E546940906
:1003800040497546000543D3E5439405403D754318
:10039000000544D3E544940940317544000545D334
:1003A000E545940540257545000542D3E54294177F
:1003B000400375420075F00AE54284F885004775F0
:1003C000F00AE54284E5F0F8850031E548701A113D
:1003D0003E800A754801800F754802800AE8640172
:1003E00060F1E8640260F18018113E800A754800EF
:1003F000800F754800800AE8640160F1E8640260DB
:10040000F1818B0540113E801F0544D3E5449409DA
:10041000400F7544000545D3E545940540037545F7
:1004200000800F754803800AE8640160DCE864021C
:1004300060F180570540113E80290542D3E5429482
:1004400017400375420075F00AE54284F9850147BB
:1004500075F00AE54284E5F0F9850131800F7548B1
:1004600000800AE8640160D2E8640260F1801CE563
:10047000487002616DE54864017002616DE5486491
:0F0480000270028103E548640360A9616980FE90
:1004A9007830790F75828F758304120089783F79C6
:1004B900017582A87583041200897840790A7582CA
:0804C9009E75830412008922D4
:01048F00006C
:01049000006B
:01049100006A
:0B04920008794430191202780010FFB6
:01049D00005E
:01049E00005D
:01049F00005C
:0104A000005B
:0104A100005A
:0104A2000059
:0104A3000058
:0104A4000057
:0104A5000056
:0104A6000055
:0104A7000054
:0104A8000053
:00000001FF
